:020000040800F2
:1000000000000520DD020008E30200082931000895
:10001000590300085D030008A50300080000000064
:10002000000000000000000000000000ED030008D8
:10003000F103000800000000F50300082B31000860
:100040001D2600081D2600081D2600081D26000884
:100050001D2600081D2600081D2600081D26000874
:100060001D2600081D2600081D2600081D26000864
:100070001D2600081D2600081D2600081D26000854
:10008000393100081D260008493100081D260008E6
:100090001D2600081D2600081D2600081D26000834
:1000A0001D2600081D2600081D2600081D26000824
:1000B000492900087D2900081D2600081D26000882
:1000C0001D2600081D2600081D2600081D26000804
:1000D0001D2600081D2600081D2600081D260008F4
:1000E000052900081D2600081D2600081D260008F9
:1000F0005D2900081D2600081D2600081D26000891
:100100001D2600081D2600086D2900081D26000870
:100110001D2600081D260008593100081D2600086C
:10012000693100081D2600081D2600081D2600084C
:100130001D2600081D2600081D2600081D26000893
:100140001D2600081D2600081D2600081D26000883
:100150001D2600081D2600081D2600081D26000873
:100160001D2600081D2600081D2600081D26000863
:100170001D2600081D2600081D260008000000009E
:100180001D2600081D2600081D2600081D26000843
:100190001D2600081D2600081D2600081D26000833
:1001A0001D2600081D2600081D2600081D26000823
:1001B0001D2600081D2600081D2600081D26000813
:1001C0001D2600081D26000800B583B002F01CF9AA
:1001D000304B314A1360314A1360314B314A03E0EE
:1001E00011681960043304322F498B42F8D32A4B2B
:1001F0001A682E4B9A4200D0FEE7284B1A682C4B07
:100200009A42F9D1234B2B4A13602B4A13602B4B94
:1002100002E000221A600433294A9342F9D3254BA5
:100220001B6813B9244B1B6803B1FEE702F0F8F812
:10023000694601A801F06AFE224B234CE41AA4107F
:100240000025AC4214DC214B214CE41AA4100025FB
:10025000AC4213DC0099019802F044FE05461D4BA8
:100260001D4CE41AA410002C0EDC284601F0EAFD17
:10027000144B53F8253098470135E2E7134B53F8F8
:10028000253098470135E3E7013C124B53F8243001
:100290009847E8E7BABADECA00000020D80100207B
:1002A000000000209C560008DC0100207856341223
:1002B00032547698DC01002020540020DC0100201C
:1002C00024540020300400083004000830040008E2
:1002D00030040008300400083004000808B5FFF7B7
:1002E00073FF00BEFEE71EF0040F0CBFEFF30880A3
:1002F000EFF309807146414A10472DE9F04182B081
:1003000004468846124B5E6B9F6B9D6A1B6B13F015
:10031000020F03D00E4BDB6A002B0CDB0D4802F002
:1003200027F8CDF800803B4632462946204602F0A9
:100330007BF800BEFEE74BF6AB6102F0EFF8002859
:10034000ECD04FF00042024BDA6202B0BDE8F0811F
:1003500000ED00E0D453000800BEFEE71EF0040FDD
:100360000CBFEFF30880EFF309807146244A104771
:100370002DE9F04182B004468846084B5E6B9F6BC6
:100380009D6A074801F0F4FFCDF800803B463246F5
:100390002946204602F048F800BEFEE700ED00E0E6
:1003A000E45300081EF0040F0CBFEFF30880EFF3D6
:1003B00009807146134A10472DE9F04182B0044686
:1003C0008846084B5E6B9F6B9D6A074801F0D0FF23
:1003D000CDF800803B4632462946204602F024F8FC
:1003E00000BEFEE700ED00E0F053000800BEFEE7AF
:1003F00000BEFEE700BEFEE770470000FB020008FB
:0804000071030008B9030008B4
:100408009C56000800000020DC0100209C560008D3
:100418000000001000000010DC010020245400201F
:080428000000001000000010AC
:1004300010B50446074B1868074BA3FB0030800932
:1004400000F05EFB002221464FF0FF3000F01CFB65
:10045000002010BD04000020D34D621008B5032019
:1004600000F000FB0020FFF7E3FF02F047FD002053
:1004700008BD0000024A136801331360704700BFD3
:100480009C030020014B1868704700BF9C030020AC
:10049000494B5A6822F440325A605A6841680A430C
:1004A0005A600268536823F480735360026853688B
:1004B000016943EA012353600268536823F04073E3
:1004C00053600268536881680B4353600268936805
:1004D00023F40063936002689368C1680B439360E0
:1004E000826A364B9A4249D00268936823F070635F
:1004F000936002689368816A0B4393600268936813
:1005000023F04053936002689368C16A0B43936081
:100510000268936823F0020393600268936881691C
:1005200043EA41039360036A002B32D102685368A7
:1005300023F4006353600268D36A23F47003D36228
:100540000168CB6AC269013A43EA0253CB6202688E
:10055000936823F40073936002689368016B43EA25
:10056000412393600268936823F480639360026878
:100570009368416943EA81239360704702689368F6
:1005800023F0706393600268936823F04053936094
:10059000BEE70268536843F400635360026853681F
:1005A00023F46043536001684B68426A013A43EAAE
:1005B00042334B60BFE700BF002301400100000F42
:1005C00020B310B50446036C43B1236C13F0100F35
:1005D0000AD00120002384F83C3010BD436480F829
:1005E0003C3002F0BBFCF0E7226C094B134043F0B7
:1005F000020323642046FFF74BFF00206064236C56
:1006000023F0030343F001032364E3E70120704771
:10061000FDEEFFFF82B00023019390F83C30012BE8
:1006200066D0012380F83C3003689A6812F0010F0D
:1006300013D19A6842F001029A60324B1B68324A29
:10064000A2FB03239B0C03EB4303019302E0019BFA
:10065000013B0193019B002BF9D10268936813F0D1
:10066000010F48D0016C294B0B4043F480730364A5
:10067000536813F4806F05D0036C23F4405343F4A4
:1006800080530364036C13F4805F1ED0436C23F02B
:1006900006034364002380F83C306FF022031360AC
:1006A000026851681A4B0B4353601A4B5B6813F096
:1006B0001F0F0DD103689A6812F0405F1DD19A6830
:1006C00042F080429A60002013E000234364E1E797
:1006D0000368114A934201D000200AE09A6812F0A0
:1006E000405F0CD19A6842F080429A60002000E09E
:1006F000022002B070470020FBE70020F9E700204D
:10070000F7E700BF0400002083DE1B43FEF8FFFF75
:1007100020000004002301400020014090F83C30FC
:10072000012B1BD0012380F83C300268936823F032
:100730000103936003689A6812F0010F09D15968A8
:10074000074A0A405A60026C064B134043F001030B
:100750000364002380F83C3018467047022070473D
:10076000DFFFFFFBFEEEFFFF0368D86C70477047AA
:1007700038B50446026811685368C3F3401313EA9E
:1007800051032CD0036C13F0100F03D1036C43F40E
:1007900000730364936813F0405F19D1A369BBB978
:1007A000D36A13F4700F03D0936813F4806F0FD1E2
:1007B000536823F020035360236C23F48073236475
:1007C000236C13F4805F03D1236C43F00103236493
:1007D000204602F029F923686FF012021A6023689C
:1007E00019685A68C2F3C01212EA910234D0226C1E
:1007F00012F0100F03D1226C42F4005222649A6866
:1008000012F4401F21D19A6B12F4401F03D09A6852
:1008100012F4806F19D15A6812F4806F15D19A685A
:1008200012F0405F11D1A2697AB95A6822F08002B1
:100830005A60236C23F480532364236C13F4807F69
:1008400003D1236C43F001032364204600F008F930
:1008500023686FF00C021A60226811685368C3F3B2
:100860008013194203D0136813F0010F08D12268D6
:1008700011685368C3F3806313EA51130CD138BD78
:10088000236C43F4803323642046FFF770FF236812
:100890006FF001021A60EAE7636C43F002036364DD
:1008A0006FF020051560204602F01AF923681D60DC
:1008B000E5E7000030B482B00023019390F83C30AB
:1008C000012B00F0C080012380F83C300B68092B1D
:1008D00022D90568EA689BB203EB43031E3B072459
:1008E00004FA03F322EA0303EB600B68574A9342CE
:1008F0000BD00568EA688C689BB203EB43031E3B90
:1009000004FA03F31343EB601BE00268D3688C68BE
:1009100043EA0463D36014E005682A699BB203EBE1
:100920004303072404FA03F322EA03032B61056857
:100930002A698C680B8803EB430304FA03F313431F
:100940002B614B68062B24D805686A6B03EB830385
:10095000053B1F2404FA03F322EA03036B630568D3
:100960006A6B4B6803EB8303053B0C8804FA03F3C3
:1009700013436B630268364B9A423AD00268344B99
:100980009A423FD0002380F83C30184602B030BC79
:1009900070470C2B16D805682A6B03EB8303233BA7
:1009A0001F2404FA03F322EA03032B6305682A6B6E
:1009B0004B6803EB8303233B0C8804FA03F31343D4
:1009C0002B63D7E70568EA6A03EB8303413B1F24E7
:1009D00004FA03F322EA0303EB620568EA6A4B6850
:1009E00003EB8303413B0C8804FA03F31343EB62EC
:1009F000C0E70B68122BC1D1164A536843F4800339
:100A00005360BBE70B68114A112B18BF9342B9D151
:100A1000104A536843F4000353600A680B4B9A4230
:100A2000B0D10D4B1B680D4AA2FB03239B0C03EBBB
:100A300083035A00019202E0019B013B0193019B59
:100A4000002BF9D19EE70220A0E700BF12000010A2
:100A500000200140002301400400002083DE1B43EE
:100A6000704700000649CB6823F4E0631B041B0CAD
:100A7000000200F4E0600343024A1A43CA60704770
:100A800000ED00E00000FA0530B4144BDB68C3F35E
:100A90000223C3F10704042C28BF04241D1D062DC6
:100AA00013D9033B012505FA04F4013C2140994088
:100AB00005FA03F3013B13401943002807DB090142
:100AC000C9B2074B195430BC70470023EAE700F065
:100AD0000F000901C9B2034B1954F4E700ED00E01F
:100AE00000E400E014ED00E0420900F01F000123E3
:100AF00003FA00F0014B43F82200704700E100E0E8
:100B00000138B0F1807F0AD2064B5860F021064AC6
:100B100082F823100020986007221A607047012095
:100B2000704700BF10E000E000ED00E0042805D0B1
:100B3000054A136823F0040313607047024A1368E0
:100B400043F004031360704710E000E0704708B5FD
:100B5000FFF7FCFF08BD70B110B50446037933B14F
:100B600002232371002020610123237110BD4371F2
:100B700002F042FAF4E701207047704710B50446CE
:100B800003685A6B12F4005F05D123685A6B12F0A8
:100B9000005F11D110BD04220271026942F001020E
:100BA00002614FF400525A630268136823F48053C1
:100BB0001360FFF7E2FFE8E704222271226942F0A6
:100BC000020222614FF000525A632268136823F038
:100BD00080531360204600F026F8DBE74379012BB1
:100BE0001FD070B401254571022303710668336874
:100BF00040F6FE74944023EA04030C6849682143DC
:100C000091400B43336004682368C02101FA02F26B
:100C100023EA02022260057100234371184670BC6A
:100C200070470220704770470268D3B2103B0949F1
:100C3000A1FB03131B090849C95CC165032B04D838
:100C4000064B13408365806D7047044B134004339B
:100C50008365F8E7ABAAAAAAAC52000800FCFFFF24
:100C6000836A826992B9012B0AD01BB1022B01D091
:100C700000207047C36A13F0807F2CD1002070479A
:100C8000C36AB3F1C07F28D000207047B2F5005F7F
:100C900005D0022B29D9032B15D000207047032B38
:100CA00003D8DFE803F01C041C0A00207047C36A65
:100CB00013F0807F15D100207047C36AB3F1C07F65
:100CC00011D000207047C36A13F0807F01D001204B
:100CD00070470020704701207047012070470120B5
:100CE00070470120704701207047012070470000C5
:100CF00070B50446FFF7C6FB002C5DD00546002307
:100D000084F83430022384F835302268136823F0E5
:100D10000103136023681A6812F0010F0AD0FFF76D
:100D2000B1FB401B0528F5D920236365032084F817
:100D3000350070BD1A68214911406268A0680243FD
:100D4000E06802432069024360690243A0690243EC
:100D5000E0690243206A02430A43616A042916D00B
:100D60001A602668756925F00705636A1D43042B20
:100D700012D075612046FFF757FFE26D3F23934085
:100D8000836000206065012384F8353070BDE16A1E
:100D9000206B01430A43E3E7A36A1D43E36A002B88
:100DA000E7D02046FFF75CFF0028E2D040236365D0
:100DB000012084F8350070BD012070BD3F8010F027
:100DC000F0B583B0044600230193724B1D68724B4B
:100DD000A3FB0535AD0A876D3E68C26D08239340BD
:100DE0001E4210D003681A6812F0040F0BD01A6864
:100DF00022F004021A60C26D08239340BB60436D69
:100E000043F001034365E26D644B93401E4209D0F9
:100E10002268526912F0800F04D0BB60636D43F00A
:100E200002036365E26D5E4B93401E4209D0226867
:100E3000126812F0020F04D0BB60636D43F004032C
:100E40006365E26D102393401E4224D0226812682D
:100E500012F0080F1FD0BB6023681A6812F4802FAD
:100E60000DD01B6813F4002F04D1236C9BB12046D6
:100E7000984710E0A36C73B1204698470BE01A68BE
:100E800012F4807F03D11A6822F008021A60236CE2
:100E90000BB120469847E26D202393401E4255D067
:100EA0002268126812F0100F50D0BB6094F83530F1
:100EB000DBB2052B0ED023681A6812F4802F33D0D2
:100EC0001B6813F4002F2AD1636C002B3ED0204600
:100ED00098473BE02268136823F0160313602268EA
:100EE000536923F080035361236CA3B12268136814
:100EF00023F008031360E26D3F239340BB6000239F
:100F000084F83430012384F83530236D002B3FD032
:100F1000204698473CE0A36C002BE7D1EBE7E36B5E
:100F2000A3B12046984711E01A6812F4807F09D1D6
:100F30001A6822F010021A60002384F8343001236A
:100F400084F83530E36B0BB120469847636DFBB1F5
:100F5000636D13F0010F17D0052384F83530226834
:100F6000136823F001031360019B013301939D4239
:100F700004D323681B6813F0010FF5D1002384F814
:100F80003430012384F83530E36C0BB120469847A8
:100F900003B0F0BD04000020B5814E1B01008000AD
:100FA00004008000F0B583B0002437E0092600E09B
:100FB000002606FA0EF6324302336C4E46F8232022
:100FC0006B4B1A68EB4302EA03064F6817F4803F45
:100FD00001D045EA0206664A1660526803EA020634
:100FE0004F6817F4003F01D045EA0206604A566098
:100FF000926803EA02064F6817F4801F01D045EAA1
:1010000002065B4A9660D26813404E6816F4001FD1
:1010100001D045EA0203564AD36001340F2C00F296
:10102000A3800123A3400A6803EA0205AB42F4D17E
:101030004A68122A18BF022A12D14FEAD40E0EF1C2
:10104000080E50F82E2004F00706B6000F27B74010
:1010500022EA07020F6907FA06F6324340F82E200B
:1010600006684FEA440E032202FA0EF2D2431640FB
:101070004F6807F0030707FA0EF73E4306604E6815
:10108000771E112E18BF012F01D9122E0FD186689D
:101090001640CF6807FA0EF73E438660466826EA98
:1010A00003034E68C6F30016A64033434360C3688B
:1010B0001A408B6803FA0EF31A43C2604B6813F0B0
:1010C000805FAAD02B4B5A6C42F480425A645B6C0E
:1010D00003F480430193019BA3089E1C234A52F80A
:1010E000262004F003064FEA860E0F2606FA0EF6B7
:1010F00022EA0602204FB8423FF45AAF1F4EB042D8
:1011000022D006F58066B04220D006F58066B04257
:101110001ED006F58066B0421CD006F58066B0424F
:101120001AD006F58066B04218D006F58066B04247
:1011300016D006F58066B04214D006F58066B0423F
:101140003FF434AF0A2634E7012632E7022630E7BF
:1011500003262EE704262CE705262AE7062628E79D
:10116000072626E7082624E703B0F0BD0038014033
:10117000003C0140003802400000024000040240F0
:1011800012B9090481617047816170474369594010
:101190004161704710B582B01B4B1A6C42F080520F
:1011A0001A641B6C03F080530193019B174A136868
:1011B00043F480331360FFF765F90446134B5B6813
:1011C00013F4803F08D1FFF75DF9001BB0F57A7F7B
:1011D000F4D9032002B010BD0C4A136843F4003365
:1011E0001360FFF74FF90446084B5B6813F4003FA8
:1011F00007D1FFF747F9001BB0F57A7FF4D9032038
:10120000E8E70020E6E700BF003802400070004039
:10121000002800F0DB8170B582B00446036813F04B
:10122000010F3AD0A24B9B6803F00C03042B2BD088
:101230009F4B9B6803F00C03082B20D06368B3F529
:10124000803F50D0002B54D1994B1A6822F4803241
:101250001A601A6822F480221A606368002B5FD03B
:10126000FFF710F90546924B1B6813F4003F14D1A9
:10127000FFF708F9401B6428F5D90320ABE18C4B3C
:101280005B6813F4800FD9D0894B1B6813F4003FBF
:1012900003D06368002B00F09B81236813F0020FDA
:1012A00064D0834B9B6813F00C0F4DD0804B9B6830
:1012B00003F00C03082B42D0E368002B79D07C4A62
:1012C000136843F001031360FFF7DCF80546784B21
:1012D0001B6813F0020F63D1FFF7D4F8401B0228FC
:1012E000F5D9032077E1724A136843F48033136021
:1012F000B3E7B3F5A02F09D06D4B1A6822F4803202
:101300001A601A6822F480221A60A6E7684B1A68ED
:1013100042F480221A601A6842F480321A609CE714
:10132000FFF7B0F80546624B1B6813F4003FB4D0DA
:10133000FFF7A8F8401B6428F5D903204BE15C4B6C
:101340005B6813F4800FB7D1594B1B6813F0020F81
:1013500004D0E368012B01D001203CE1544A13681A
:1013600023F0F803216943EAC1031360236813F0F3
:10137000080F46D0636983B34D4A536F43F00103AE
:101380005367FFF77FF80546494B5B6F13F0020F79
:1013900037D1FFF777F8401B0228F5D903201AE16F
:1013A000434A136823F0F803216943EAC103136039
:1013B000DCE73F4A136823F001031360FFF762F88C
:1013C00005463B4B1B6813F0020FCFD0FFF75AF8CE
:1013D000401B0228F5D90320FDE0354A536F23F066
:1013E00001035367FFF74EF80546314B5B6F13F06F
:1013F000020F06D0FFF746F8401B0228F5D903205C
:10140000E9E0236813F0040F7ED0294B1B6C13F026
:10141000805F31D1264B1A6C42F080521A641B6CEB
:1014200003F080530193019B0125224B1B6813F4A9
:10143000807F23D0A368012B34D0002B3CD11C4BE0
:101440001A6F22F001021A671A6F22F004021A675B
:10145000A368002B46D0FFF715F80646144B1B6F08
:1014600013F0020F4FD1FFF70DF8801B41F28833C4
:101470009842F3D90320AEE00025D6E70D4A136861
:1014800043F480731360FEF7FDFF0646094B1B68AB
:1014900013F4807FCED1FEF7F5FF801B6428F5D9C9
:1014A000032098E0024A136F43F001031367CFE76C
:1014B0000038024000700040052B09D0484B1A6FDD
:1014C00022F001021A671A6F22F004021A67BFE7BE
:1014D000434B1A6F42F004021A671A6F42F001027E
:1014E0001A67B5E7FEF7CEFF06463D4B1B6F13F0BC
:1014F000020F08D0FEF7C6FF801B41F288339842E6
:10150000F3D9032067E0F5B9A369002B62D0344A10
:10151000926802F00C02082A5FD0022B19D0304AE0
:10152000136823F080731360FEF7ACFF04462C4B66
:101530001B6813F0007F47D0FEF7A4FF001B0228B2
:10154000F5D9032047E0264A136C23F08053136437
:10155000DAE7234A136823F080731360FEF792FFE3
:1015600005461F4B1B6813F0007F06D0FEF78AFF6D
:10157000401B0228F5D903202DE0E369226A1343BA
:10158000626A43EA8213A26A5208013A43EA0243BA
:10159000E26A43EA026343F00053114A536013685E
:1015A00043F080731360FEF76DFF04460C4B1B681D
:1015B00013F0007F06D1FEF765FF001B0228F5D966
:1015C000032008E0002006E0002004E0012070472E
:1015D000012000E0002002B070BD0120FBE700BF49
:1015E00000380240174B9B6803F00C03042B27D0F4
:1015F000082B01D014487047124B586800F03F0088
:101600005B6813F4800F11D0104BB3FBF0F30D4A5D
:101610005068C0F3881000FB03F00A4B5B68C3F30B
:10162000014301335B00B0FBF3F07047064BB3FBA3
:10163000F0F3044A5068C0F3881000FB03F0ECE7B5
:1016400002487047003802400024F40000127A007B
:10165000002800F0918070B50446494B1B6803F0E8
:101660000F038B420CD2464A136823F00F030B433F
:101670001360136803F00F03994201D0012070BD7D
:10168000236813F0020F06D03E4A936823F0F0035C
:10169000A068034393600D46236813F0010F31D017
:1016A0006368012B20D0022B25D0364A126812F035
:1016B000020F63D033498A6822F0030213438B6020
:1016C000FEF7E0FE06462F4B9B6803F00C036268B2
:1016D000B3EB820F16D0FEF7D5FE801B41F28833A4
:1016E0009842F0D9032070BD264A126812F4003FD8
:1016F000E0D1012070BD234A126812F0007FD9D1D9
:10170000012070BD1E4B1B6803F00F039D420CD2DD
:101710001B4A136823F00F032B431360136803F075
:101720000F039D4201D0012070BD236813F0040F08
:1017300006D0144A936823F4E053E1680B439360A6
:10174000236813F0080F07D00E4A936823F4604310
:10175000216943EAC1039360FFF744FF094B9B688B
:10176000C3F30313084AD35CD840084B1860002029
:10177000FEF75EFE002070BD01207047012070BDA5
:10178000003C0240003802400054000804000020E1
:10179000014B1868704700BF0400002010B4036AB2
:1017A000046A24F001040462846924F0F00444EA29
:1017B000021223F00A030B438261036210BC7047DC
:1017C00010B4036A23F0100303628469036A24F4EB
:1017D000704444EA023223F0A00343EA0113826119
:1017E000036210BC7047836823F0700341F0070167
:1017F0000B4383607047022380F83D300268136812
:1018000043F001031360012380F83D30002070474E
:101810000268D36843F00103D3600268136843F0A1
:10182000010313600020704770477047704770478E
:1018300010B5044603681A6912F0020F11D0DA6875
:1018400012F0020F0DD06FF002021A61012303772C
:1018500003689B6913F0030F79D0FFF7E6FF0023BD
:10186000237723681A6912F0040F12D0DA6812F095
:10187000040F0ED06FF004021A610223237723684D
:101880009B6913F4407F68D02046FFF7CEFF00230A
:10189000237723681A6912F0080F12D0DA6812F061
:1018A000080F0ED06FF008021A6104232377236813
:1018B000DB6913F0030F57D02046FFF7B6FF002374
:1018C000237723681A6912F0100F12D0DA6812F029
:1018D000100F0ED06FF010021A61082323772368CF
:1018E000DB6913F4407F46D02046FFF79EFF0023BC
:1018F000237723681A6912F0010F03D0DA6812F017
:10190000010F3FD123681A6912F0800F03D0DA6803
:1019100012F0800F3DD123681A6912F4807F03D042
:10192000DA6812F0800F3BD123681A6912F0400F79
:1019300003D0DA6812F0400F39D123681A6912F027
:10194000200F03D0DA6812F0200F37D110BDFFF757
:101950006BFF2046FFF76AFF81E72046FFF764FF31
:101960002046FFF763FF92E72046FFF75DFF204622
:10197000FFF75CFFA3E72046FFF756FF2046FFF77F
:1019800055FFB4E76FF001021A61204600F0E4FF52
:10199000B8E76FF080021A61204600F0E2F9BAE77A
:1019A0006FF080021A61204600F0DBF9BCE76FF0AF
:1019B00040021A612046FFF73AFFBEE76FF02002AF
:1019C0001A61204600F0CCF9C0E7000070B403684B
:1019D000474A904214BF00220122B0F1804F14BF49
:1019E000144642F00104D4B9424DA84214BF002568
:1019F0000125414EB04254D0002D52D105F1804511
:101A000005F58235A84214BF0025012506F50066BC
:101A1000B04202D00DB9002502E0012500E0012509
:101A20001DB123F070034D682B43002C3DD1314C88
:101A3000A04214BF002401242F4DA84250D0002CF6
:101A40004ED104F1804404F58234A04214BF002436
:101A5000012405F50065A84244D0002C42D1274C52
:101A6000A04214BF0024012405F59A35A8423BD0BA
:101A7000002C39D1224CA04214BF0024012405F5CA
:101A80000065A84232D0002C30D11E4CA04214BFB9
:101A900000240124A5F59635A84204D01CB90024E1
:101AA00004E00125BCE7012400E001241CB123F47B
:101AB0004073CC68234323F080034C6923430360C5
:101AC0008B68C3620B6883620F4B984208BF42F079
:101AD00001020AB10B6903630123436170BC7047C3
:101AE0000124E3E70124E1E70124DFE70124DDE746
:101AF0000000014000080040000400400044014094
:101B0000001800400020004000040140A8B110B5BA
:101B1000044690F83D305BB1022384F83D30211D2E
:101B20002068FFF753FF012384F83D30002010BDEB
:101B300080F83C3001F0B2FAEEE70120704710B4B3
:101B4000846824F47F4442EA032319430C438460ED
:101B500010BC704790F83C30012B7DD010B5044686
:101B6000012380F83C30022380F83D300268906801
:101B70003A4B034093600B68402B59D010D9702B1F
:101B80003ED01FD8502B49D0602B32D1CA6849684B
:101B90002068FFF715FE60212068FFF724FE28E08B
:101BA000102B4FD008D9202B51D0302B21D13021F0
:101BB0002068FFF718FE1CE0DBB900212068FFF762
:101BC00012FE16E0B3F5805F0ED0B3F5005F10D1C2
:101BD000CB684A6889682068FFF7B1FF226893687C
:101BE00043F48043936004E0226891681C4B0B40EF
:101BF0009360012384F83D30002084F83C0010BD40
:101C0000CB684A6889682068FFF799FF2268916865
:101C1000144B0B4043F077039360EAE7CA684968C6
:101C20002068FFF7BBFD50212068FFF7DCFDE0E7EF
:101C3000CA6849682068FFF7B1FD40212068FFF7B6
:101C4000D2FDD6E710212068FFF7CDFDD1E7202196
:101C50002068FFF7C8FDCCE7022070478800FEFF30
:101C6000F8FFFEFF88FFFEFF90F83C30012B46D0C6
:101C700010B50446012380F83C30022380F83D3043
:101C80000068826822F070024B681A431D4B1340B3
:101C90000A68134383604B68502B24D010D9602B03
:101CA00027D0702B05D10B698A68C9682068FFF7B7
:101CB00046FF012384F83D30002084F83C0010BD2D
:101CC000402BF6D12368186A1A6A22F001021A62C0
:101CD0002268936923F0F003096943EA01139361D1
:101CE00023681862E5E70A6989682068FFF756FDEE
:101CF000DFE70A6989682068FFF762FDD9E70220FB
:101D0000704700BFF8FFFEFF90F83C30012B21D058
:101D100070B4012380F83C3004686368A2680E4DFB
:101D20000E4EAC4218BFB44203D123F470034D6889
:101D30002B4323F070030D682B4322F08002896847
:101D40000A43636003689A60002380F83C301846B9
:101D500070BC704702207047000401400000014041
:101D60007047704708B503460C4A12685AB10B4ACF
:101D70001068033323F003030344094A934206D84F
:101D8000064A136008BD0749044A1160EFE701F0F5
:101D9000F3F90C2303604FF0FF3008BDE001002091
:101DA00000FC0420245400200020132807DC074BEB
:101DB00053F83030B3F1FF3F01D00130F5E714287C
:101DC00000D070474FF0FF30FBE700BF68020020F3
:101DD00030B50025132420462946ABBE04462046D4
:101DE00030BD38B5044601F0C7F90546FFF7F0FFEE
:101DF0002860204638BDB0F1FF3F00D0704708B5DD
:101E0000FFF7EFFF08BD000010B504460B4B186844
:101E100008B1836B5BB1132C0CD8094B53F83430E9
:101E2000B3F1FF3F08D0064800EBC40010BD01F03D
:101E300007FBF0E7002010BD002010BD08000020C7
:101E40006802002000B530B9044D18242046294608
:101E5000ABBE0446FEE7024DF7E700BF26000200D6
:101E6000230002002DE9F04184B0234F019703269F
:101E7000039600230293012401AD20462946ABBE00
:101E800080461E4BC3F800800197039604230293FB
:101E900020462946ABBE8046194BC3F80080019707
:101EA00003960823029320462946ABBE0446154BF1
:101EB0001C60B4F1FF3F01D000230AE0104B1A6808
:101EC000104B1A60F8E74FF0FF310F4A42F8331019
:101ED0000133132BF7DD0C4B084A12681A600022FD
:101EE0005A60074909689960DA600649096819610A
:101EF0005A6104B0BDE8F081B452000860020020CD
:101F0000640200205C020020680200202DE9F04FEE
:101F100083B083468A46354B00934F2301936C462A
:101F2000152630462146ABBE0646002E48D1B146A6
:101F300000222E4B83F84F20009D3746B04619E013
:101F400001F028FC204490F90130002B22DB092C01
:101F50001ED043466BB9082E33DC272C18BF222C29
:101F600001D101352746224B43F8265001364FF068
:101F70000108013595F900401CB3B8F1000FDFD01E
:101F800057B1A742F5D100232B704F46C846F0E762
:101F90000123DFE70123DDE701F0FCFB204490F99A
:101FA0000130002B0ADB092C06D03B46002BE0D089
:101FB00000232B70B846DCE74346F7E74346F5E7D6
:101FC00000262EB9094B00221A70094A1360013607
:101FD000074B002243F82620CBF80060CAF80030F7
:101FE000FFF740FF03B0BDE8F08F00BFE401002021
:101FF0003402002030B585B001900291039201AD0A
:10200000062420462946ABBE04462046FFF7F3FED1
:1020100005B030BD70B50E461546FFF7F5FE68B148
:1020200004462A4631460068FFF7E4FFB0F1FF3F5F
:1020300003D0281A63680344636070BD01F09CF804
:10204000092303604FF0FF3070BDF0B583B00C463C
:102050001546FFF7D9FEC0B10646022D1CD8012D4A
:1020600021D0022D34D03368009301946F460A25A5
:1020700028463946ABBE05462846FFF7BCFE002879
:102080003DDB7460204603B0F0BD01F075F8092314
:1020900003604FF0FF30F6E701F06EF8162303609F
:1020A0004FF0FF30EFE74368E41801D40025D8E78C
:1020B00001F062F8162303607368002B19DD002C11
:1020C0001ADD01F059F88B2303604FF0FF30DAE797
:1020D000336802AF47F8083D0C2528463946ABBEA9
:1020E00005462846FFF787FEB0F1FF3FCBD00444FA
:1020F000B9E74FF0FF30C6E74FF0FF30C3E74FF0CE
:10210000FF30C0E708B5FFF7A0FF08BD30B585B0C8
:1021100001900291039201AD052420462946ABBEF1
:1021200004462046FFF767FE05B030BD70B50E4689
:102130001446FFF769FE70B1054622463146006835
:10214000FFF7E4FF021E11DBA01A6B6803446B600B
:10215000944207D070BD01F00FF8092303604FF0DF
:10216000FF3070BD0020FFF73CFE70BD4FF0FF3028
:10217000F0E730B583B002AD45F8040D02242046E7
:102180002946ABBE04462046FFF735FE03B030BDFE
:1021900038B50446FFF738FE68B10546013C012C0E
:1021A00010D92868FFF7E5FF034610B94FF0FF325A
:1021B0002A60184638BD00F0DFFF092303604FF0A6
:1021C000FF33F6E7044B9A681B699A42E9D14FF056
:1021D000FF3303600023ECE76802002070B50C4673
:1021E000FFF712FEA8B10646636843F4005363602C
:1021F0004FF48063E3620C2528463146ABBE0546AA
:102200002846FFF7F8FDB0F1FF3F01D02061002024
:1022100070BD00F0B1FF092303604FF0FF3070BDC7
:1022200038B505460C463C220021204601F041FB12
:1022300021462846FFF7D2FF38BD38B505460C4683
:102240003C220021204601F034FB0021284600F00A
:102250006BF80546B0F1FF3F0CD0636843F40143CF
:1022600063602146FFF7BAFF04462846FFF790FF58
:10227000204638BD0446FBE7F0B593B007460C4650
:10228000FFF792FD0646B0F1FF3F32D004F4206321
:10229000B3F5206F32D014F4803500D0012514F04E
:1022A000020F01D045F0020540F201631C4201D04B
:1022B00045F0040514F0080F03D025F0040545F09F
:1022C00008050F97384602F084FA119010950FAD6B
:1022D000012420462946ABBE0446002C1CDB114BD2
:1022E00043F8364003EBC60300225A60304613B071
:1022F000F0BD00F041FF18230360F7E76946384658
:10230000FFF79BFFB0F1FF3FC5D000F035FF112371
:1023100003604FF0FF36E9E72046FFF762FD06460F
:10232000E4E700BF680200200EB400B50199FFF792
:10233000A3FF5DF804EB03B0704738B5FFF764FD09
:1023400080B10546092420462946ABBE04462046F6
:10235000012C06D000F010FF0446FFF739FD206085
:10236000002038BD00F008FF09230360002038BDBD
:102370000FB400B583B004AB53F8042B0193802154
:10238000064802F02BFC002803DD0146034800F05C
:1023900037F803B05DF804EB04B070470803002081
:1023A0002DE9F04385B004460F4643560BB10E4667
:1023B0001EE0042528462146ABBE0446384605B03B
:1023C000BDE8F08314F9011B04AA1A4402F8101C9A
:1023D0000133AB42F6D304AA1344002203F8102CB5
:1023E000E9464FF0040840464946ABBE8046761B9E
:1023F000002EE3D03546102E28BF10250023E8E735
:1024000008B5FFF7CDFF08BD08B500F009F9024B8C
:10241000024A9A6008BD00BF00ED00E0000000081D
:1024200008B500F01DF908BDF8B504460D4617467D
:102430001E462748FFF79CFF21682648FFF798FFB4
:1024400061682548FFF794FFA1682448FFF790FFD3
:10245000E1682348FFF78CFF21692248FFF788FFD6
:1024600061692148FFF784FFA1692048FFF780FFD9
:10247000E1691F48FFF77CFF1E48FFF779FF2946F7
:102480001D48FFF775FF1D4CE16A1D48FFF770FFFF
:10249000216B1C48FFF76CFFE16B1B48FFF768FFDF
:1024A00015F0800F0AD115F4004F0CD11748FFF733
:1024B0005FFF06991648FFF75BFFF8BD39461548E0
:1024C000FFF756FFEFE731461348FFF751FFEDE7FF
:1024D000B8520008C8520008D8520008E852000854
:1024E000F852000808530008185300082853000841
:1024F00038530008485300085453000800ED00E02A
:10250000645300087453000884530008B45300084F
:10251000BC53000894530008A453000838B58369DD
:102520001B888B4201D0002038BD044603684568F3
:10253000013B302B69D8DFE803F046211C1C5E30DC
:10254000332D1919681919191919361924681927F9
:10255000683968686868686868686868686868682A
:102560006868686868686868681919004FF0FF3320
:102570000360A3690233A361012038BD0023036017
:10258000F7E700230360F4E700232B606B60AB6088
:10259000EB60EEE700230360EBE7AB680360E8E77E
:1025A00000230360E5E700230360E2E7BFF34F8FFA
:1025B0001749CA6802F4E062164B1343CB60BFF3BD
:1025C0004F8F00BFFDE71449286802F0F8F870B992
:1025D0006B6813B901232360CBE7042B02D10223DC
:1025E0002360C6E7082B02D103232360C1E74FF025
:1025F000FF332360BDE72B68023B012B02D9AB6898
:102600000360B6E700230360B3E7002038BD00BFD6
:1026100000ED00E00400FA05B4520008FEE70000F7
:102620000B4B1A6842F001021A6000219960186889
:10263000084A02401A60084A5A601A6822F4802246
:102640001A60D9604FF00062044B9A60704700BF77
:1026500000380240FFFFF6FE1030002400ED00E0DD
:10266000224B9B6803F00C03042B14D0082B16D0CC
:102670001BB11F4A1F4B1A6002E01D4A1D4B1A6016
:102680001A4B9B68C3F303131B4AD15C194A1368A6
:10269000CB4013607047194A164B1A60F0E7134B92
:1026A0005A685B6803F03F0312F4800F13D0134A9B
:1026B000B2FBF3F20D4B5B68C3F3881303FB02F329
:1026C0000A4A5268C2F3014201325200B3FBF2F3EC
:1026D000084A1360D4E7064AB2FBF3F2034B5B6887
:1026E000C3F3881303FB02F3EAE700BF003802409C
:1026F0000024F400040000200054000840787D010C
:1027000000B583B0124B1A6B42F480021A631A6B45
:1027100002F480020092009A1A6B42F400121A63CB
:102720001B6B03F400130193019B00221146102040
:10273000FEF7AAF91020FEF7D7F90022114638203B
:10274000FEF7A2F93820FEF7CFF903B05DF804FBDD
:10275000003802402DE9F04F8DB0634B1A6B42F008
:1027600004021A631A6B02F004020192019A1A6BB6
:1027700042F080021A631A6B02F080020292029AFF
:102780001A6B42F001021A631A6B02F00102039203
:10279000039A1A6B42F002021A631A6B02F00202E9
:1027A0000492049A1A6B42F008021A631A6B02F040
:1027B00008020592059A1A6B42F040021A631B6BDD
:1027C00003F040030693069BDFF83091002244F2A9
:1027D00081014846FEF7D4FC444F00224021384690
:1027E000FEF7CEFC4FF4005BCDF81CB0404B0893D5
:1027F00000240994DFF808A107A95046FEF7D2FB90
:102800003223079302260896099403250A954FF070
:102810000B08CDF82C8007A95046FEF7C3FB862392
:102820000793089609940A95CDF82C8007A931489A
:10283000FEF7B8FB44F2810307934FF0010ACDF88D
:1028400020A009940A9407A94846FEF7ABFBCDF8EF
:102850001CB0089609940A95CDF82C8007A9484623
:10286000FEF7A0FB4FF440730793089609940A956E
:1028700007230B9307A92048FEF794FB40230793F7
:10288000CDF820A009940A9407A93846FEF78AFBE0
:10289000802307930894099407A93846FEF782FB22
:1028A0004FF4E8530793089609940A950A230B936B
:1028B00007A91048FEF776FB4FF4007307930894BE
:1028C000099407A90B48FEF76DFB4FF420530793BB
:1028D000089609940A95CDF82C8007A93846FEF78A
:1028E00061FB0DB0BDE8F08F0038024000180240D7
:1028F0000000111000000240000C024000040240E1
:10290000000802400B4B1B6863B90122094B1A6097
:102910000522094B1A60094B1B889BB23BB10A2266
:10292000074B1A604FF40052064B5A617047024B36
:102930001A60F7E790030020C81400208C030020E1
:10294000CC340020003C014008B50248FEF770FF7F
:1029500008BD00BF8C3400207047000008B5024855
:10296000FEF766FF08BD00BF4C13002008B5024803
:10297000FEF75EFF08BD00BFA013002008B50648A3
:10298000FEF756FF054B1B68012B00D008BD04481D
:10299000FDF740FEFAE700BFE013002088030020A7
:1029A00080140020F8B506460F460C490C4800F08C
:1029B000F5FD054632880B4900F0F8FD012406E0DC
:1029C00036F814200849284600F0F0FD0134BC42D6
:1029D000F6D3284600F028FCF8BD00BF5854000884
:1029E0005C540008845400088854000810B5094855
:1029F000FDF794FE0024084B1C6001210748FEF7F8
:102A0000C5FB074850F8061BFFF7CCFF054B1C60C1
:102A100010BD00BF80140020880300200004024085
:102A2000A40300209003002038B580210D48FEF754
:102A3000ADFB0D4A93889BB21268934202D3FFF715
:102A4000D5FF38BD084DAC88A4B20848FDF78CFE10
:102A500080B205EB4404E080AB889BB201339BB2AB
:102A6000AB8038BD00040240A40300208014002085
:102A700010B50649064800F091FD044601220549BB
:102A800000F094FD204600F0CFFB10BD5854000824
:102A90008C5400088454000870B50546FFF7E8FF21
:102AA0000B490C4800F07AFD06462A460A4900F018
:102AB0008FFD002408E005EB44020632074930464A
:102AC00000F086FD0134A4B22B689C42F3D370BDA4
:102AD00020540008245400084C54000850540008A6
:102AE00008B501224FF480410448FEF749FB044831
:102AF000FDF714FE0022034B1A6008BD00040240DB
:102B00008014002090030020FEE7000000B589B08B
:102B100018484FF0804303600023436083600E2217
:102B2000C26003618361FEF7F1FFA0B908A94FF409
:102B3000805341F8103D0F48FFF70CF880B920236F
:102B400001938023039301A90A48FFF7DDF860B9D8
:102B500009B05DF804FB40F2C3110748FFF7D4FF4A
:102B600040F2C9110448FFF7CFFF4FF4E871024863
:102B7000FFF7CAFF8C3400201054000800B589B05C
:102B800019481A4B03604FF47A7242600023836045
:102B9000C260036143618361FEF7B8FFA8B90723F0
:102BA00003931023049303A90F48FFF75DF888B936
:102BB0002023009301930023029369460A48FFF7FC
:102BC000A3F860B909B05DF804FB40F22921084878
:102BD000FFF79AFF4FF40C710548FFF795FF4FF48C
:102BE0000E710348FFF790FF4C13002000040140D2
:102BF0001054000800B589B019481A4B036001232E
:102C000043600023836040F2E732C2600361836166
:102C1000FEF77CFFA0B9072303930023049303A9C5
:102C20000F48FFF721F880B9202300930023029377
:102C300069460B48FFF768F860B909B05DF804FB16
:102C400040F206210848FFF75FFF40F20D210648D9
:102C5000FFF75AFF4FF405710348FFF755FF00BF18
:102C6000A0130020000C00401054000800B589B0EB
:102C700019481A4B03604FF4FA63436000238360E2
:102C800040F2E732C26003618361FEF73FFFA0B903
:102C9000072303931023049303A90F48FEF7E4FFCF
:102CA00080B9202300930023029369460A48FFF766
:102CB0002BF860B909B05DF804FB4FF4F2710848D5
:102CC000FFF722FF40F2EB110548FFF71DFF4FF41D
:102CD000F9710348FFF718FFE013002000040040DB
:102CE0001054000800B585B01648174B0360002348
:102CF000436083600361836103624FF04052C262AC
:102D00004FF0E0628262C3600122C26103634261EC
:102D1000FDF756FC60B90023009301220192029353
:102D200069460848FDF7C6FD38B905B05DF804FBF3
:102D300040F295110548FFF7E7FE40F29D11034868
:102D4000FFF7E2FE8014002000200140105400082C
:102D500000B583B00D480E4B0360FDF7FCFE58B97B
:102D60000C2300930022019269460848FDF736FFC4
:102D700038B903B05DF804FB40F2A9110548FFF72C
:102D8000C3FE4FF4D8710348FFF7BEFE7024002045
:102D9000007400401054000800B595B02D4B1A6C1B
:102DA00042F080521A641B6C03F080530193019B24
:102DB000294B1A6842F440421A601B6803F44043EE
:102DC0000293029B0223089301220B9210220C9281
:102DD0000E9300220F9208221092D8221192129381
:102DE000139308A8FEF714FA28BBFEF7D3F938BBF3
:102DF0000F23039302230493002305934FF4E0531E
:102E000006930793072103A8FEF722FCE8B9FEF713
:102E1000BFFC124BA3FB00308009FDF771FE0420BC
:102E2000FDF784FE002211464FF0FF30FDF72CFE27
:102E300015B05DF804FB4FF4AD710948FFF764FE6F
:102E400040F261110648FFF75FFE40F26F1104483F
:102E5000FFF75AFE0038024000700040D34D621068
:102E60001054000808B5FDF7F9FAFFF795FFFFF7D2
:102E700071FCFFF745FCFFF749FEFFF77FFEFFF708
:102E8000B9FEFFF7F3FEFFF72DFFFFF761FF00220A
:102E900011462C20FDF7F8FD002211463220FDF7E7
:102EA000F3FD002211461D20FDF7EEFD2C20FDF75D
:102EB0001BFE3220FDF718FE1D20FDF715FE282011
:102EC000FDF712FE0448FEF796FC0448FEF7A0FC4E
:102ED0000348FEF79DFC08BD4C130020E0130020C2
:102EE0008C34002008B50448FFF7D6FDFFF7BAFF81
:102EF000FEF7B8FFFEE700BF7444002008B50320CA
:102F0000FDF7B0FD002211466FF00B00FDF7BCFD90
:102F1000002211466FF00A00FDF7B6FD00221146AF
:102F20006FF00900FDF7B0FD002211466FF00400BC
:102F3000FDF7AAFD002211466FF00300FDF7A4FD86
:102F4000002211466FF00100FDF79EFD00221146A0
:102F50004FF0FF30FDF798FD08BD00000268214BDF
:102F60009A4200D0704730B587B0044603F58C33E1
:102F70005A6C42F480725A645B6C03F48073009361
:102F8000009B01230193032302930025039501A9CC
:102F90001548FEF707F81548154B03604560856036
:102FA000C5604FF4806303614FF4006343614FF4E5
:102FB00000538361C56105624562FDF799FE60B902
:102FC0000A4BA3639C63002211461220FDF75CFDAF
:102FD0001220FDF789FD07B030BD7A210548FFF7C3
:102FE00093FDEDE700200140000002408424002012
:102FF00010640240B45400080268234B9A4200D087
:10300000704730B587B0044603F5E2331A6C42F0DE
:1030100000521A641B6C03F000530093009B1023B2
:103020000193032302930025039501A91748FDF797
:10303000B9FF1748174B03604FF0606343604023AC
:103040008360C5604FF4806303614FF400634361A4
:103050004FF400538361C56105624562FDF748FE88
:1030600060B90B4BA3609C63002211463620FDF72C
:103070000BFD3620FDF738FD07B030BDCB210648EB
:10308000FFF742FDEDE700BF007400400000024082
:103090002014002088600240B454000884B0036803
:1030A000B3F1804F0AD01C4A934213D01B4A93427B
:1030B0001BD01B4A934223D004B0704703F50E3354
:1030C0001A6C42F001021A641B6C03F001030093B6
:1030D000009BF1E7134B1A6C42F002021A641B6C5E
:1030E00003F002030193019BE6E70E4B1A6C42F0DA
:1030F00008021A641B6C03F008030293029BDBE7CF
:10310000084B5A6C42F002025A645B6C03F00203F3
:103110000393039BD0E700BF00040040000C004075
:103120000004014000380240FEE708B5FDF7A2F9AF
:10313000FDF70DFD08BD000008B50248FDF740FE93
:1031400008BD00BF2014002008B50248FDF710FBA1
:1031500008BD00BF8014002008B50248FDF70EFD31
:1031600008BD00BF7024002008B50248FDF728FE06
:1031700008BD00BF84240020014B1868704700BFC1
:103180000800002070B505460C4611B900263046EF
:1031900070BD18B183690BB900F052F91F4B9C4206
:1031A00032D16C68B4F90C30002BEFD021462846A0
:1031B00000F042F8236B064633B1216A284698474F
:1031C0000028B8BF4FF0FF36A3891B0603D521693D
:1031D000284600F077FB616B41B104F1440399424A
:1031E00002D0284600F06EFB00236363A16C21B17E
:1031F000284600F067FB0023A36400F08DF900234C
:10320000A38100F08AF9C2E7054B9C4201D1AC686A
:10321000C8E7044B9C4208BFEC68C3E7F0540008C1
:1032200010550008D0540008024B01461868FFF7FB
:10323000A9BF00BF080000208A892DE9F04105469A
:1032400010070C465AD44B68002B05DC0B6C002B86
:1032500002DC0020BDE8F081E66A002EF9D00023F0
:1032600012F480522F682B6033D0606DA3895A0707
:1032700005D56368C01A636B0BB1236CC01A0023B9
:103280000246E66A216A2846B047431CA38906D154
:1032900029681D294BD82B4ACA40D60747D500229A
:1032A0006260D9042269226004D5421C01D12B68D6
:1032B00003B96065616B2F600029CAD004F1440333
:1032C000994202D0284600F0FDFA00206063BDE874
:1032D000F081216A01232846B047411CC6D12B68E2
:1032E000002BC3D01D2B01D0162B01D12F60B0E7CE
:1032F000A38943F04003A381BDE8F0810F69002F4B
:10330000A7D093070E6808BF4B690F6018BF002352
:10331000A6EB07088B60B8F1000F9ADD43463A46EA
:10332000216AA66A2846B047002807DCA38943F033
:103330004003A3814FF0FF30BDE8F0810744A8EBC4
:103340000008E8E70100402038B50B6905460C4647
:10335000DBB118B183690BB900F072F80C4B9C42D9
:1033600009D16C68B4F90C307BB121462846BDE820
:103370003840FFF761BF074B9C4201D1AC68F1E7D1
:10338000054B9C4208BFEC68ECE7002038BD00BF4D
:10339000F054000810550008D0540008014620B928
:1033A000044B0549186800F0D3B9044B1868FFF7BF
:1033B000CBBF00BF3055000849330008080000208B
:1033C000014900F0C5B900BF49330008002310B51A
:1033D000044603604360836081814366C281036168
:1033E00043618361194608225C3000F062FA054BA4
:1033F0006362054BA362054BE362054B24622363C2
:1034000010BD00BF394700085B470008934700081C
:10341000B747000870B54A1E682555430E4605F1AA
:10342000740100F09DFA044640B1002180E842009A
:103430000C30A06005F1680200F03BFA204670BD38
:10344000836910B5044633BB8364C3640365124BC0
:10345000124A1B688262984204BF0123836100F014
:103460001FF86060204600F01BF8A060204600F0C6
:1034700017F80022E06004216068FFF7A7FF01222F
:103480000921A068FFF7A2FF02221221E068FFF7DE
:103490009DFF0123A36110BD30550008C133000812
:1034A000F8B51C4B1E68B369074613B93046FFF7E1
:1034B000C7FF4836B4687368013B03D5336833B13E
:1034C0003668F7E7B4F90C506DB16834F4E70421BD
:1034D0003846FFF79FFF30600028F1D10C233B6096
:1034E00004462046F8BD4FF6FF73E3810123A38114
:1034F00065662560A560656025616561A561082236
:10350000294604F15C0000F0D4F96563A563A56465
:10351000E564E6E73055000870477047F7B50F4699
:10352000114601AA054601F057FC064618B90024C9
:10353000204603B0F0BD2846FFF7B2FF044600283E
:10354000F5D04FF4DB73019A3946284601F00EF8A6
:10355000002806DA0025FFF7DFFFA581FFF7DDFF72
:10356000E5E70A4B63620A4BA3620A4BE3620A4B2C
:103570002363F305E081A6812462D9D502230022CA
:103580002146284600F036F8D2E700BF3947000848
:103590005B47000893470008B7470008024B0A46FC
:1035A00001461868FFF7BABF080000200EB403B543
:1035B000014603AB054853F8042B0068019300F063
:1035C00055FA02B05DF804EB03B070470800002024
:1035D0000EB403B5014603AB054853F8042B00684D
:1035E000019300F043FE02B05DF804EB03B07047B6
:1035F0000800002000F000B82DE9F8430C46914681
:103600001E46054618B183690BB9FFF719FF3F4BFA
:103610009C4212D16C68A38903F48473B3F5847F50
:1036200003D121462846FFF78FFED4F82C80B8F14D
:10363000000F0CD11D232B6057E0354B9C4201D16C
:10364000AC68E8E7334B9C4208BFEC68E3E7012E27
:1036500030D0022E01D0002E55D123691BB921464E
:10366000284600F0C9F821462846FFF76DFE0746B8
:1036700000283AD133464A46216A2846C0470130DD
:1036800033D0616B41B104F14403994202D0284622
:1036900000F018F90023636323692360A3890021E4
:1036A00023F402636160A381082204F15C0000F04E
:1036B00000F91CE021462846FFF746FEA28912F4D5
:1036C00080520CD0606DA3895A0713D56368C01A65
:1036D000636B0BB1236CC01A81440026BDE7216ADD
:1036E00033462846C047411CEDD14FF0FF373846DE
:1036F000BDE8F8831B07EFD52368002BECD02269C7
:103700009B1A1844E8E7162395E700BFF054000819
:1037100010550008D05400082DE9F041884600F10A
:103720004804002614B93046BDE8F081A5686768F2
:10373000013F01D52468F5E7AB89012B06D9B5F91E
:103740000E30013302D02846C04706436835EFE704
:103750002DE9F8438046894600F14804002614B953
:103760003046BDE8F883A5686768013F01D5246845
:10377000F5E7AB89012B07D9B5F90E30013303D03A
:1037800029464046C84706436835EEE7D0F8EC00C6
:1037900070470000044B054A1B681B6A002B08BFDA
:1037A0001346D3F8EC007047080000206C0000209E
:1037B00070B50E46B1F90E10002990B014461D46A2
:1037C00007DA00232B60B3891A0610D44FF4806304
:1037D0000EE001AA01F036FB0028F2DB029A02F4A7
:1037E0007042A2F500535A425A412A60EEE7402344
:1037F0000020236010B070BD8B8973B59D0706460D
:103800000C4607D504F1470323602361012363615C
:1038100002B070BD01AB6A46FFF7CAFF00990546CA
:10382000304600F09DF848B9B4F90C309A05EFD451
:1038300023F0030343F00203A381E3E70D4BB362DC
:10384000A389206043F08003A381009B6361019BF7
:1038500020615BB1B4F90E10304601F005FB28B1D0
:10386000A38923F0030343F00103A381A3891D432C
:10387000A581CDE7C133000882B001B901A942B1E9
:103880004BB113780B601278101C18BF012002B0E6
:1038900070471046FBE76FF00100F8E710B5431ED4
:1038A0000A44914200D110BD11F8014B03F8014FB9
:1038B000F7E702440346934200D1704703F8011B27
:1038C000F9E7000038B50546002945D051F8043C19
:1038D0000C1F002BB8BFE41801F054FB1F4A1368FB
:1038E000104633B9636014602846BDE8384001F0E3
:1038F0004ABBA3420CD921686218934204BF1A68DC
:103900005B68636004BF521822600460ECE71346F2
:103910005A680AB1A242FAD919685818A0420BD1C4
:1039200020680144581882421960DDD1106852683D
:103930005A6001441960D7E702D90C232B60D3E702
:10394000206821188A4204BF11685268626004BF6F
:10395000091821605C60C7E738BD00BF94030020F0
:1039600070B5CD1C25F0030508350C2D38BF0C258E
:10397000002D064601DBA94203D90C233360002049
:1039800070BD01F0FFFA234A1468214691B9224C18
:1039900023681BB9304600F08FFE20602946304670
:1039A00000F08AFE431C26D10C233360304601F020
:1039B000EAFAE4E70B685B1B1AD40B2B0FD90B60F8
:1039C000CD50CC18304601F0DEFA04F10B00231D77
:1039D00020F00700C31A1BD05A42E25070BD8C423F
:1039E0000DBF63684B686360136018BF0C46E9E75E
:1039F0000C464968CAE7C41C24F00304A04205D061
:103A0000211A304600F058FE0130CDD02560D9E7AC
:103A100070BD00BF94030020980300209368013B11
:103A2000002B10B4936008DA9469A34202DBCBB296
:103A30000A2B02D110BC01F0DFB81368581C1060CB
:103A40001970C8B210BC7047F8B506460F46144648
:103A5000D518AC4201D1002007E03A4614F8011B0A
:103A60003046FFF7DBFF431CF3D1F8BD2DE9F04FE3
:103A70009DB00C4617460393064618B183690BB9EF
:103A8000FFF7DEFC7C4B9C4257D17468A389180772
:103A90005DD52369002B5AD00023099320238DF88C
:103AA000293030238DF82A304FF0010BB8464546B7
:103AB00015F8013B002B55D1B8EB070A0BD0534644
:103AC0003A4621463046FFF7BFFF013000F0C48080
:103AD000099B5344099398F80030002B00F0BC80F8
:103AE00000234FF0FF3204930793059206938DF85D
:103AF00053301A9305222978604801F0D9F905F16D
:103B00000108049B002831D1D90644BF20228DF83A
:103B100053201A0744BF2B228DF853202A782A2AD3
:103B20002CD0079A00210A20A846013598F80030C9
:103B3000303B092B6DD971B326E0514B9C4201D12A
:103B4000B468A3E74F4B9C4208BFF4689EE7214648
:103B5000304601F0C3F800289ED04FF0FF301DB072
:103B6000BDE8F08F252BA7D0A846A0E7434A801ACE
:103B70000BFA00F0184304904546BBE7039A111D69
:103B800012680391002A01DB079204E0524243F0DD
:103B900002030792049398F800302E2B10D198F866
:103BA00001302A2B08F1010137D1039B1A1D1B6834
:103BB0000392002BB8BF4FF0FF3308F102080593C2
:103BC000314D98F800100322284601F071F940B1F8
:103BD0004023401B03FA00F0049B0343049308F1C5
:103BE000010898F8001029488DF82810062208F1DD
:103BF000010701F05DF9002834D0254B03BB039B7E
:103C0000073323F0070308330393099B4B440993BD
:103C10004CE700FB0232012186E70023059318469A
:103C20000A258846013198F80020303A092A03D93C
:103C3000002BC5D00590C3E705FB00200123F0E76A
:103C400003AB00932246134B04A93046AFF3008028
:103C5000B0F1FF3F8146D8D1A3895B063FF57DAF28
:103C600009987CE703AB009322460A4B04A930462F
:103C700000F088F8ECE700BFF05400083E5500085B
:103C800010550008D0540008445500084855000855
:103C900000000000493A00082DE9F04791461F4610
:103CA0008A680B69DDF820809342B8BF1346C9F8D3
:103CB000003091F8432006460C4612B10133C9F892
:103CC00000302368990642BFD9F800300233C9F8A2
:103CD0000030256815F0060507D104F1190AE368DC
:103CE000D9F800209B1A9D4229DB94F843302268C2
:103CF000003318BF012392062ED404F14302394643
:103D00003046C047013021D02368E568D9F800204B
:103D100003F00603042B08BFAD1AA36822690CBF89
:103D200025EAE57500259342C4BF9B1AED184FF0B4
:103D300000091A344D451BD10020BDE8F08701234E
:103D4000524639463046C047013003D14FF0FF306C
:103D5000BDE8F0870135C2E7E1185A1C302081F830
:103D60004300224494F8451082F843100233C4E71C
:103D70000123224639463046C0470130E6D009F1DA
:103D80000109D7E72DE9F04317460A7E85B06E2A70
:103D9000984606460C460C9B01F1430E00F0BC8091
:103DA0001AD8632A2ED00AD8002A00F0C880582AD0
:103DB00000F08A8004F1420584F842202AE0642A57
:103DC00001D0692AF6D121681A6811F0800F23D03A
:103DD000111D1960136827E0732A00F0B48008D819
:103DE0006F2A2AD0702AE5D10A6842F020020A60C0
:103DF00003E0752A21D0782ADCD1782284F8452086
:103E00006E4964E01A6801F14205111D19601368DA
:103E100084F842300123A3E011F0400F02F10401C5
:103E20001960D7D0B2F90030002B03DA2D225B42A3
:103E300084F8432062490A2217E02068196810F0CC
:103E4000800F03D0081D18600B6806E010F0400FCB
:103E500001F104001860F7D00B8859496F2A14BF8C
:103E60000A220822002084F843006568A560002D1E
:103E7000C0F29C80206820F004002060002B3FD11D
:103E8000002D40F095807546082A0BD12368DA078B
:103E900008D5236962689A42DEBF302305F8013CE9
:103EA00005F1FF35AEEB05032361CDF800803B46FD
:103EB00003AA21463046FFF7EFFE013055D14FF0FF
:103EC000FF3005B0BDE8F08381F845203C49226809
:103ED000186812F0800F00F104051D6001D003681E
:103EE00002E05506FBD50388D00744BF42F020020C
:103EF00022601BB9226822F0200222601022B1E762
:103F00007546B3FBF2F002FB1033CB5C05F8013DC4
:103F100003460028F5D1B7E708681A68496910F028
:103F2000800F04D0101D18601368196007E010F0AE
:103F3000400F02F1040018601368F6D019800023C6
:103F400023617546B1E71A68111D1960156862682A
:103F50000021284600F0ACFF08B1401B6060636898
:103F60002361002384F843309FE723692A463946BA
:103F70003046C0470130A2D023689B0707D50025F3
:103F800004F11909E368039A9B1A9D4205DBE06876
:103F9000039B9842B8BF184693E701234A46394627
:103FA0003046C04701308AD00135EBE7002BA7D15E
:103FB0000B7884F8423004F1420565E7605500084B
:103FC0004F5500082DE9F04FADF5257D0DF10C089A
:103FD0000193002346934793A04BA293DFF884926A
:103FE0009F4BCDF8208106460C46A39392460A27A4
:103FF0009AF80030002B00F02F81FFF7CBFB9AF8E6
:1040000000B05844437813F0080343D1BBF1250FA7
:104010000AF1010540F09980459343939AF80130E5
:104020002A2B03D1102343930AF102052978A1F129
:104030003002092AAA4605F1010541D9032289481F
:1040400000F036FF38B1A0EB090301209840439BF4
:1040500018434390AA469AF80030672B0AF10105ED
:104060004AD8652B80F0B780472B2FD8452B80F09E
:10407000B280002B00F08280252B66D00323499369
:10408000449745E04799013147916168013301390F
:10409000616023606368002B0BDDFFF77BFB236807
:1040A0001978084441780D07ECD40AF10105AA46B5
:1040B0009EE7A39B2146304698470028EDD0F4E7C1
:1040C000459B07FB0313303B4593AFE75B2B61D068
:1040D0000CD8582BD2D1439A42F40072439210224A
:1040E00044926F2BB4BF0323042310E0632B5CD0F6
:1040F000642BC3D14497F4E7702B42D01DD86E2BAC
:1041000059D043D8692BB9D1002344930323499351
:104110006368002B61DD439B59066FD5499B022BD9
:104120007CDC01AB224643A9304600F0C7F80128E9
:1041300000F092800228BAD11DE0752BDAD0782BDE
:10414000C9D0732B9AD10223E1E76368002B0CDD01
:1041500023681A7893457FD1013362682360479BB7
:10416000013A013362604793A1E7A39B21463046A1
:1041700098470028ECD04698002863D14FF0FF30D4
:1041800066E0439A42F020024392A4E70823449356
:104190000423BCE72946404600F09EFA439B43F0C7
:1041A0004003439305460123B1E7439B43F040039B
:1041B00043930023ABE7439AD0063FF578AF12F064
:1041C000010F019A479B02F104010191126814BF8B
:1041D000138013606BE7052399E7A39B21463046C4
:1041E0009847002897D0C6E7479A013247926268FD
:1041F000013A002A62600ADD01332360FFF7CAFA40
:1042000023681A78104442781207EDD486E7A39BFE
:104210002146304698470028F0D0ACE7042B06DC56
:1042200001AB224643A9304600F0ACF87FE70E4BC5
:10423000002B3FF43CAF01AB224643A93046AFF31D
:10424000008074E7A38913F0400F18BF4FF0FF30D0
:104250000DF5257DBDE8F08F4698F9E7A14A0008E5
:10426000A545000844550008000000002DE9F04174
:104270000C4616461F46054618B183690BB9FFF771
:10428000DFF80B4B9C4208D16C683B463246214616
:104290002846BDE8F041FFF795BE064B9C4201D190
:1042A000AC68F2E7044B9C4208BFEC68EDE700BF46
:1042B000F054000810550008D05400082DE9F041D2
:1042C00015468A6880460C4632B98A69002A0CBFB6
:1042D00001224FF0FF328A602268D1065FBF1A6860
:1042E000111D196017680026A369DBB1012B07D1E6
:1042F0002B6862691B78D35CA3B9002E32D106E02B
:10430000022B07D0002E2DD1A369012B2AD1012029
:10431000BDE8F081FFF73EFA2B681B78184443781C
:104320001B07EFD42368DA065EBF2B681B783B704F
:104330002A686B6802F101022A60A26803F1FF3368
:1043400002F1FF326B6006F1010658BF0137A2602F
:1043500042B1002BC8DCD4F880312946404698474A
:104360000028C1D0236813F0100305D1E2680132A0
:10437000E260A26902B13B7023691E4426610020FD
:10438000BDE8F0812DE9F04F9A46744B0C46834608
:10439000164693E8070087B003ABA76883E80700D9
:1043A0006F4BA1696F4A032918BF1A467B1EB3F5EC
:1043B000AE7F84BF40F25D13A3602368009243F494
:1043C000506388BF6FF4AE7504F11C0923608CBF85
:1043D0007F1900274B464FF000080193316803AB6B
:1043E000022253F82800097800F062FD019B28B3EF
:1043F000B8F1010F56D162682AB9082262602268BA
:1044000042F400722260226822F4A0622260A26854
:10441000511EA16092B13268511C316012781A703D
:104420005D1C7368013B002B736006DCD4F880319F
:10443000314658469847002876D12B4608F10108A6
:10444000B8F1030FC9D162680AB90A2262606268D2
:10445000454960690193891A00F03EF9019B4FF0CC
:1044600000081D46A368002B38D0316860690A78BF
:10447000805C002832D0302A226821D110051FD557
:1044800008F1010817B10133013FA3607368013BD4
:10449000002B73601BDD336801333360A368013B7D
:1044A000A360DFE7B8F1020FB1D1226802F4C06166
:1044B000B1F5007FC2D11021616042F48072A5E79E
:1044C00022F4106222600B782B700135DEE7D4F8FD
:1044D00080313146584698470028DFD02368D905F7
:1044E0000CD54D4508D915F8011CD4F87C3132465D
:1044F000584698476F1E3D464D452CD0226812F015
:1045000010021ED12A706368009E49465846B04783
:104510002268DAF8003012F0200F08D01A1DCAF80D
:1045200000201B68186009E04FF00008D6E7D207AA
:10453000F4D51A1DCAF800201B681880E3680133FF
:10454000E360A5EB0905A8442569454425610020E1
:1045500007B0BDE8F08F0120FAE700BF74550008EE
:10456000054A0008E54800089055000838B5074C92
:10457000054608461146002222601A46FDF7D4FE81
:10458000431C02D1236803B12B6038BDA003002077
:10459000838903F00903092B01D1FEF7FFBE002038
:1045A00070470000F8B50C46054618B183690BB991
:1045B000FEF746FF3B4B9C420AD16C68B4F90C20D5
:1045C0000023636093B29E060CD54FF0FF30F8BD18
:1045D000354B9C4201D1AC68F0E7344B9C4208BF9C
:1045E000EC68EBE7580748D4D90605D4092342F014
:1045F00040022B60A281E8E71A070BD52146284626
:10460000FEF7A2FE0028E0D1A389A06023F00803F2
:10461000A381A061A38943F00403A38123691BB98B
:1046200021462846FFF7E8F8B4F90C70BEB2B3078C
:104630000FD00123A3811E4B1E49186806F00906FE
:10464000FFF76AF8092EA78103D121462846FEF715
:10465000F3FD22692260666A6369216A2846B047D1
:10466000002860601CDCA38917BF002243F02003F0
:1046700043F040036260A381A7E7616B0029CDD0BE
:1046800004F14403994202D02846FFF71BF9236C3A
:10469000636000206063002BC0D0E36B2360F8BD33
:1046A0000020F8BDF054000810550008D054000850
:1046B000305500089145000838B5064C00230546E2
:1046C00008462360FDF74EFB431C02D1236803B16B
:1046D0002B6038BDA003002070B50B785E2B13BF94
:1046E0004A1C8A1C4B78002108BF0121441E00F19E
:1046F000FF0504F8011FA542FBD113B9013A10468A
:1047000070BD81F00104C45411460D782D2D01F1C6
:10471000010206D05D2DF2D00DB90A46EFE72B4617
:10472000F1E74E785D2EFAD0B342F8DC0231013366
:104730009E42C454FBDCE8E710B50C46B1F90E10FC
:1047400000F098FD0028ABBF636DA3891B1823F40C
:104750008053ACBF6365A38110BD2DE9F0411F46B6
:104760008B89DB0505460C46164605D5022300223B
:10477000B1F90E1000F088FBA389B4F90E1023F4F0
:104780008053A38132463B462846BDE8F04100F005
:1047900093BA10B50C46B1F90E1000F075FB431C2E
:1047A000A38915BF606523F4805343F48053A3812C
:1047B00018BFA38110BDB1F90E1000F0FDBA10F8BA
:1047C000012B11F8013B012A28BF9A42F7D0D01AD9
:1047D0007047034613F8012B002AFBD1181A013841
:1047E00070472DE9F84F8046894692461F468B4612
:1047F0005D460A9815F8014BFEF7C8FF204446783D
:1048000016F008060BD12D2C0BD12C7801260BF1BC
:10481000020567B1102F14D1302C0AD011E0AB463D
:10482000E6E72B2C04BF2C780BF10205F1E7302CC6
:1048300027D12B7803F0DF03582B4BD16C7810274E
:104840000235002E0CBF6FF000414FF000410022F6
:10485000B1FBF7FE104607FB1E1CA4F13003092B29
:1048600011D81C46A7421DDD531C07D0864516D320
:1048700001D1A44513DB00FB0740012215F8014BD1
:10488000EBE70A27DDE7A4F14103192B01D8373CF8
:10489000E8E7A4F16103192B04D8573CE2E74FF095
:1048A000FF32EBE7531C08D12223C8F8003008463A
:1048B000BAF1000F07D1BDE8F88F06B14042BAF156
:1048C000000F0CD022B1013DCAF80050BDE8F88FAE
:1048D0004D46F9E73024002FB3D10827B1E7BDE8F2
:1048E000F88F000037B5064C064D2468246A002C6A
:1048F00008BF2C460094FFF774FF03B030BD00BF23
:10490000080000206C0000202DE9F0478046894611
:1049100092461E460F463D46089815F8014BFEF795
:1049200035FF2044437813F008030AD12D2C0AD117
:104930002C780123BD1C5EB1102E13D1302C09D070
:1049400010E02F46E7E72B2C04BF2C78BD1CF2E7C4
:10495000302C25D12A7802F0DF02582A4AD16C780F
:10496000102602354FF0FF310027B1FBF6F106FBB0
:1049700001FE6FEA0E0E3846A4F13002092A11D862
:104980001446A6421DDD002F18DB814216D301D14B
:10499000A64513DB00FB0640012715F8014BEBE7AA
:1049A0000A26DFE7A4F14102192A01D8373CE8E7DB
:1049B000A4F16102192A04D8573CE2E74FF0FF370F
:1049C000EBE7002F09DA2223C8F800304FF0FF3060
:1049D000BAF1000F07D1BDE8F08703B14042BAF148
:1049E000000F0CD027B1013DCAF80050BDE8F08798
:1049F0004D46F9E73024002EB4D10826B2E7BDE8D1
:104A0000F087000037B5064C064D2468246A002C58
:104A100008BF2C460094FFF777FF03B030BD00BFFE
:104A2000080000206C0000202DE9F0410C46496B85
:104A300004F1440399421ED14FF48061FEF790FFC8
:104A400018B94FF0FF30BDE8F0814FF48063A363E5
:104A500094F84630606380F8FF3394F8453080F86E
:104A6000FE3394F8443080F8FD3300F2FD302060CE
:104A70000020BDE8F081A66B77003A4600F084FA8A
:104A800005460028DDD000EB0608014632464046C8
:104A9000FEF704FFC4F800806563A763E8E7000041
:104AA0004B1C70B506460D46144603D14FF0FF353A
:104AB000284670BD18B183690BB9FEF7C1FC2E4BB7
:104AC0009C422CD17468B4F90C3023F02003A381EC
:104AD0009BB2590713D4DA06E8D51B070BD521463C
:104AE0003046FEF731FC0028E0D1A389A06023F016
:104AF0000803A381A061A38943F00403A381636B2E
:104B00006268EDB2E3B1A36B9A4212DA23685A1ECF
:104B1000226003F8015C636801336360C8E7174BE8
:104B20009C4201D1B468CEE7154B9C4208BFF468A3
:104B3000C9E721463046FFF777FF0028E6D0B5E702
:104B40002169236851B1994208D213F8011C8D42A2
:104B500004D1013B013223606260A9E7E36304F101
:104B6000440363630323A3632346226403F8465F7D
:104B700023600123D1E700BFF0540008105500085E
:104B8000D054000830B5141E05469BB0184605DA0F
:104B90008B232B604FF0FF301BB030BD4FF40273FE
:104BA000ADF80C3014BF04F1FF3323460293059394
:104BB0004FF6FF7300910491ADF80E3002461E9B34
:104BC0006946284600F062FA431CBCBF8B232B6069
:104BD000002CE1D0009B00221A70DDE707B500939E
:104BE00013460A46014603480068FFF7CBFF03B0AF
:104BF0005DF804FB08000020F8B50E461446054693
:104C000018B183690BB9FEF71BFC214B9C422AD1DA
:104C10006C68A369A360A3891A072ED5236963B3BF
:104C200023692068C01A6369F6B29842374604DBEC
:104C300021462846FEF788FB28BBA368013BA360FA
:104C400023685A1C22601E7063690130984204D0A8
:104C5000A389DB0719D50A2E17D121462846FEF76E
:104C600073FB90B10FE00B4B9C4201D1AC68D0E7D5
:104C7000094B9C4208BFEC68CBE72146284600F070
:104C80002DF80028CCD04FF0FF373846F8BD00BFD4
:104C9000F054000810550008D054000849B1FF2A0C
:104CA00085BF8A2303600A704FF0FF3098BF012050
:104CB000704708467047000038B5074C054608465F
:104CC0001146002222601A46FDF730FA431C02D139
:104CD000236803B12B6038BDA0030020324B70B5B0
:104CE0001D6806460C4625B1AB6913B92846FEF788
:104CF000A7FB2E4B9C420FD16C68B4F90C309AB2D2
:104D000015072CD4D00611D40922326043F0400399
:104D1000A3814FF0FF3070BD254B9C4201D1AC68A0
:104D2000EBE7244B9C4208BFEC68E6E7510712D53D
:104D3000616B41B104F14403994202D03046FEF761
:104D4000C1FD00236363A38923F02403A38100230F
:104D5000636023692360A38943F00803A381236967
:104D60004BB9A38903F42073B3F5007F03D0214628
:104D70003046FEF741FDA28912F001030CD000235A
:104D8000A36063695B42A361236953B9B4F90C3032
:104D900013F08000BAD170BD920758BF6369A36059
:104DA000F2E70020F7E700BF08000020F0540008F9
:104DB00010550008D054000838B5064C00230546AD
:104DC00008462360FDF7E4F9431C02D1236803B1D0
:104DD0002B6038BDA00300200B78722B30B513D0A8
:104DE000772B07D0612B13D14FF4027401234FF4BA
:104DF000847003E04FF4C0640123082011F8015FC0
:104E000055B92343136030BD002423460420F5E741
:104E100016230360002030BD622D0CD0782D0DD0FC
:104E20002B2DEBD120F01C0023F0030340F01000E9
:104E300043F00203E2E743F48033DFE743F4006327
:104E4000DCE7000038B5074C00230546084611464C
:104E50002360FDF7E5F9431C02D1236803B12B6001
:104E600038BD00BFA003002038B5064C002305461E
:104E700008462360FDF761FA431C02D1236803B1A1
:104E80002B6038BDA003002038B5074C0546084606
:104E90001146002222601A46FDF734F9431C02D164
:104EA000236803B12B6038BDA00300200000000080
:104EB00001F0FF01102A2BDB10F0070F08D010F8CB
:104EC000013B013A8B422DD010F0070F42B3F6D1CF
:104ED000F0B441EA012141EA014122F007047FF0E8
:104EE00000070023F0E80256083C85EA010586EA3F
:104EF000010685FA47F5A3FA87F586FA47F6A5FA7B
:104F000087F68EB9EED1F0BC01F0FF0102F0070286
:104F100032B110F8013B013A83EA010313B1F8D131
:104F20000020704701387047002D06BF3546033812
:104F3000073815F0010F07D1013015F4807F02BF4B
:104F4000013015F4C03F0130F0BC0138704700BF9C
:104F5000884210B501EB020303D8421E99420CD1DE
:104F600010BD9842F9D28118D21AD34200D110BD97
:104F700013F8014D01F8014DF7E711F8014B02F864
:104F8000014FEBE770477047F8B5074614460E46E9
:104F900021B91146BDE8F840FEF7E2BC22B9FEF7A0
:104FA00091FC25462846F8BD00F076F984420FD9D9
:104FB00021463846FEF7D4FC05460028F2D031469B
:104FC0002246FEF76BFC31463846FEF77BFCE9E7EC
:104FD0003546E7E72DE9F0478E689E4282460C464B
:104FE0009146984635D88A8912F4906F31D0256859
:104FF00009696F1A6569022305EB450595FBF3F511
:1050000008F101033B449D4238BF1D46530531D58D
:105010002946FEF7A5FC064650B90C23CAF8003015
:10502000A38943F04003A3814FF0FF30BDE8F08730
:105030003A462169FEF732FCA38923F4906343F0DA
:105040008003A381266165613E44ED1B2660A56057
:105050004646464528BF4646324649462068FFF741
:1050600077FFA3689B1BA36023681E442660002073
:10507000BDE8F0872A46FFF787FF06460028E1D102
:1050800021695046FEF71EFCC7E700002DE9F04FEE
:105090009DB0804603938B891C060D4616460FD59E
:1050A0000B696BB94021FEF75BFC2860286128B9C9
:1050B0000C23C8F800304FF0FF30C5E040236B618F
:1050C0000023099320238DF8293030238DF82A30CE
:1050D0004FF0010B37463C4614F8013B002B3CD106
:1050E000B7EB060A0BD05346324629464046FFF737
:1050F00071FF013000F0A380099B534409933B7872
:10510000002B00F09C8000234FF0FF3204930793A4
:10511000059206938DF853301A9305222178504852
:10512000FFF7C6FE671C049BD8B9D90644BF2022EE
:105130008DF853201A0744BF2B228DF85320227874
:105140002A2A16D0079A00210A20274601343B78E4
:10515000303B092B51D9C9B111E0252BC0D02746CE
:10516000B9E73F4A801A0BFA00F0184304903C4616
:10517000D3E7039A111D12680391002A01DB0792FD
:1051800004E0524243F00203079204933B782E2B33
:105190000ED17B782A2B07F1010132D1039B1A1D16
:1051A0001B680392002BB8BF4FF0FF330237059303
:1051B0002C4C397803222046FFF77AFE38B1402381
:1051C000001B03FA00F0049B034304930137397872
:1051D00025488DF8281006227E1CFFF769FE00285E
:1051E00035D0224BFBB9039B073323F00703083369
:1051F0000393099B4B4409936CE700FB02320121A6
:10520000A3E70023059318460A240F4601313A7894
:10521000303A092A03D9002BCAD00590C8E704FB0D
:1052200000200123F1E703AB00932A46104B04A9A9
:105230004046AFF30080B0F1FF3F8146D9D1AB8942
:105240005B063FF538AF09981DB0BDE8F08F03ABA2
:1052500000932A46064B04A94046FEF793FDEAE771
:105260003E5500084455000848550008000000005D
:10527000D54F000838B5074C0546084611460022B0
:1052800022601A46FCF7C6FE431C02D1236803B114
:105290002B6038BDA003002051F8040C0028A0F1B9
:1052A0000400BCBF0B58C018704700000006101661
:1052B000000610163A747400537461636B206672B2
:1052C000616D653A0A000000205230203D20202503
:1052D0003038580A00000000205231203D2020259F
:1052E0003038580A00000000205232203D2020258E
:1052F0003038580A00000000205233203D2020257D
:105300003038580A0000000020523132203D20255C
:105310003038580A00000000204C52203D20202543
:105320003038580A00000000205043203D2020253E
:105330003038580A0000000020505352203D2025EC
:105340003038580A000000004653522F4641523A66
:105350000A0000002043465352203D2020253038CB
:10536000580A00002048465352203D20202530385E
:10537000580A00002044465352203D202025303852
:10538000580A00002041465352203D202025303845
:10539000580A0000204D4D464152203D202530380E
:1053A000580A00002042464152203D202025303836
:1053B000580A00004D6973630A000000204C522F08
:1053C0004558435F52455455524E3D20253038587C
:1053D0000A0000005B486172644661756C745D0A86
:1053E000000000005B4275734661756C745D0A00D5
:1053F0005B55736167654661756C745D0A000000FA
:105400000000000000000000010203040607080974
:105410002E2E2F7372632F6D61696E2E6300000054
:1054200072000000433A5C53544D3332546F6F6C3A
:10543000436861696E5C446F776E6C6F6164735C26
:105440006374725F696E2E637376000025750000C9
:105450002C25687500000000772B0000433A5C5350
:10546000544D3332546F6F6C436861696E5C446FA6
:10547000776E6C6F6164735C6374725F6F75742EAA
:1054800063737600256400002C256400433A5C5366
:10549000544D3332546F6F6C436861696E5C446F76
:1054A000776E6C6F6164735C6D635F66732E63739C
:1054B000760000002E2E2F7372632F73746D3332BB
:1054C000663778785F68616C5F6D73702E6300007B
:1054D00000000000000000000000000000000000CC
:1054E00000000000000000000000000000000000BC
:1054F00000000000000000000000000000000000AC
:10550000000000000000000000000000000000009B
:10551000000000000000000000000000000000008B
:10552000000000000000000000000000000000007B
:105530000C0000204300504F534958002E00232DEB
:10554000302B2000686C4C0065666745464700308C
:1055500031323334353637383941424344454600D9
:1055600030313233343536373839616263646566D9
:105570000000000092550008955500089855000855
:10558000412D46612D663839303132333435363766
:105590005D002B2D003030007858000020202020A6
:1055A00020202020202828282828202020202020D3
:1055B00020202020202020202020202088101010B3
:1055C000101010101010101010101010040404040B
:1055D0000404040404041010101010101041414180
:1055E00041414101010101010101010101010101EB
:1055F000010101010101011010101010104242427E
:1056000042424202020202020202020202020202BA
:10561000020202020202021010101020000000001C
:10562000000000000000000000000000000000007A
:10563000000000000000000000000000000000006A
:10564000000000000000000000000000000000005A
:10565000000000000000000000000000000000004A
:10566000000000000000000000000000000000003A
:10567000000000000000000000000000000000002A
:10568000000000000000000000000000000000001A
:0C5690000000000000000000000000000E
:10569C00785634120024F4000C00002000000000A6
:1056AC00F054000810550008D05400080000000009
:1056BC0000000000000000000000000000000000DE
:1056CC0000000000000000000000000000000000CE
:1056DC0000000000000000000000000000000000BE
:1056EC0000000000000000000000000000000000AE
:1056FC00000000000000000000000000430000005B
:10570C00000000000000000000000000000000008D
:10571C00000000000000000000000000430000003A
:10572C00000000000000000000000000000000006D
:10573C00000000000000000000000000430000001A
:10574C00000000000000000000000000000000004D
:10575C0000000000000000000000000043000000FA
:10576C00000000000000000000000000000000002D
:10577C0000000000000000000000000043000000DA
:10578C00000000000000000000000000000000000D
:10579C0000000000000000000000000043000000BA
:1057AC0000000000000000000000000000000000ED
:1057BC00000000000000000000000000430000009A
:1057CC0000000000000000000000000000000000CD
:1057DC000000000000000000000000009D4C0008CC
:1057EC0079380008000000009B5500083C55000863
:1057FC00435500084355000843550008435500081D
:10580C00435500084355000843550008435500080C
:10581C0043550008FFFFFFFFFFFFFFFFFFFFFFFFE8
:10582C00FFFF000001004153434949000000000004
:10583C00000000000000000000000000000000005C
:10584C0000000000000041534349490000000000E3
:10585C00000000000000000000000000000000003C
:0C586C000000000000000000325476989C
:04000005080001C925
:00000001FF
